{
  "contractName": "Keys",
  "abi": [
    {
      "inputs": [
        {
          "internalType": "address",
          "name": "",
          "type": "address"
        }
      ],
      "name": "publicKeys",
      "outputs": [
        {
          "internalType": "bytes32",
          "name": "",
          "type": "bytes32"
        }
      ],
      "stateMutability": "view",
      "type": "function",
      "constant": true
    },
    {
      "inputs": [
        {
          "internalType": "bytes32",
          "name": "publicKey",
          "type": "bytes32"
        }
      ],
      "name": "setPublicKey",
      "outputs": [],
      "stateMutability": "nonpayable",
      "type": "function"
    },
    {
      "inputs": [
        {
          "internalType": "bytes32",
          "name": "privateKey",
          "type": "bytes32"
        }
      ],
      "name": "setPrivateKey",
      "outputs": [],
      "stateMutability": "nonpayable",
      "type": "function"
    },
    {
      "inputs": [],
      "name": "getPrivateKey",
      "outputs": [
        {
          "internalType": "bytes32",
          "name": "",
          "type": "bytes32"
        }
      ],
      "stateMutability": "view",
      "type": "function",
      "constant": true
    }
  ],
  "bytecode": "0x608060405234801561001057600080fd5b50610316806100206000396000f3fe608060405234801561001057600080fd5b506004361061004c5760003560e01c80631371cd1d1461005157806361f0b25f1461006d578063a3d6f9a91461008b578063d9f4dd8f146100bb575b600080fd5b61006b600480360381019061006691906101fe565b6100d7565b005b61007561011d565b604051610082919061023a565b60405180910390f35b6100a560048036038101906100a091906102b3565b610164565b6040516100b2919061023a565b60405180910390f35b6100d560048036038101906100d091906101fe565b61017c565b005b806000803373ffffffffffffffffffffffffffffffffffffffff1673ffffffffffffffffffffffffffffffffffffffff1681526020019081526020016000208190555050565b6000600160003373ffffffffffffffffffffffffffffffffffffffff1673ffffffffffffffffffffffffffffffffffffffff16815260200190815260200160002054905090565b60006020528060005260406000206000915090505481565b80600160003373ffffffffffffffffffffffffffffffffffffffff1673ffffffffffffffffffffffffffffffffffffffff1681526020019081526020016000208190555050565b600080fd5b6000819050919050565b6101db816101c8565b81146101e657600080fd5b50565b6000813590506101f8816101d2565b92915050565b600060208284031215610214576102136101c3565b5b6000610222848285016101e9565b91505092915050565b610234816101c8565b82525050565b600060208201905061024f600083018461022b565b92915050565b600073ffffffffffffffffffffffffffffffffffffffff82169050919050565b600061028082610255565b9050919050565b61029081610275565b811461029b57600080fd5b50565b6000813590506102ad81610287565b92915050565b6000602082840312156102c9576102c86101c3565b5b60006102d78482850161029e565b9150509291505056fea2646970667358221220c7c2ce60decd56a54f7eea1be73cc2039f97a35aea01cd1c9a7e042c09cde7b464736f6c634300080d0033",
  "immutableReferences": {},
  "source": "// SPDX-License-Identifier: MIT\r\npragma solidity ^0.8.0;\r\n\r\ncontract Keys {\r\n    // Mapping to store the public keys of users\r\n    mapping(address => bytes32) public publicKeys;\r\n\r\n    // Mapping to store the private keys of users\r\n    mapping(address => bytes32) private privateKeys;\r\n\r\n    // Function to set a public key\r\n    function setPublicKey(bytes32 publicKey) public {\r\n        publicKeys[msg.sender] = publicKey;\r\n    }\r\n\r\n    // Function to set a private key\r\n    function setPrivateKey(bytes32 privateKey) public {\r\n        privateKeys[msg.sender] = privateKey;\r\n    }\r\n\r\n    // Function to get private key\r\n    function getPrivateKey() public view returns (bytes32) {\r\n        return privateKeys[msg.sender];\r\n    }\r\n}",
  "sourcePath": "C:\\Users\\Sam\\Downloads\\MessagingApp\\contracts\\Keys.sol",
  "compiler": {
    "name": "solc",
    "version": "0.8.13+commit.abaa5c0e.Emscripten.clang"
  },
  "schemaVersion": "3.4.16",
  "updatedAt": "2024-04-23T11:41:42.167Z",
  "networkType": "ethereum",
  "devdoc": {
    "kind": "dev",
    "methods": {},
    "version": 1
  },
  "userdoc": {
    "kind": "user",
    "methods": {},
    "version": 1
  }
}