{
  "contractName": "Messages",
  "abi": [
    {
      "anonymous": false,
      "inputs": [
        {
          "indexed": true,
          "internalType": "address",
          "name": "sender",
          "type": "address"
        },
        {
          "indexed": true,
          "internalType": "address",
          "name": "recipient",
          "type": "address"
        }
      ],
      "name": "MessageRead",
      "type": "event"
    },
    {
      "anonymous": false,
      "inputs": [
        {
          "indexed": true,
          "internalType": "address",
          "name": "sender",
          "type": "address"
        },
        {
          "indexed": true,
          "internalType": "address",
          "name": "recipient",
          "type": "address"
        },
        {
          "indexed": false,
          "internalType": "string",
          "name": "content",
          "type": "string"
        }
      ],
      "name": "MessageSent",
      "type": "event"
    },
    {
      "inputs": [
        {
          "internalType": "address",
          "name": "",
          "type": "address"
        },
        {
          "internalType": "uint256",
          "name": "",
          "type": "uint256"
        }
      ],
      "name": "contactLists",
      "outputs": [
        {
          "internalType": "address",
          "name": "",
          "type": "address"
        }
      ],
      "stateMutability": "view",
      "type": "function",
      "constant": true
    },
    {
      "inputs": [
        {
          "internalType": "address",
          "name": "",
          "type": "address"
        },
        {
          "internalType": "address",
          "name": "",
          "type": "address"
        },
        {
          "internalType": "uint256",
          "name": "",
          "type": "uint256"
        }
      ],
      "name": "userMessages",
      "outputs": [
        {
          "internalType": "address",
          "name": "sender",
          "type": "address"
        },
        {
          "internalType": "address",
          "name": "recipient",
          "type": "address"
        },
        {
          "internalType": "string",
          "name": "content",
          "type": "string"
        },
        {
          "internalType": "uint256",
          "name": "timestamp",
          "type": "uint256"
        },
        {
          "internalType": "bool",
          "name": "isRead",
          "type": "bool"
        }
      ],
      "stateMutability": "view",
      "type": "function",
      "constant": true
    },
    {
      "inputs": [
        {
          "internalType": "address",
          "name": "contact",
          "type": "address"
        }
      ],
      "name": "getUserMessages",
      "outputs": [
        {
          "components": [
            {
              "internalType": "address",
              "name": "sender",
              "type": "address"
            },
            {
              "internalType": "address",
              "name": "recipient",
              "type": "address"
            },
            {
              "internalType": "string",
              "name": "content",
              "type": "string"
            },
            {
              "internalType": "uint256",
              "name": "timestamp",
              "type": "uint256"
            },
            {
              "internalType": "bool",
              "name": "isRead",
              "type": "bool"
            }
          ],
          "internalType": "struct Messages.Message[]",
          "name": "",
          "type": "tuple[]"
        }
      ],
      "stateMutability": "view",
      "type": "function",
      "constant": true
    },
    {
      "inputs": [],
      "name": "getMyContacts",
      "outputs": [
        {
          "internalType": "address[]",
          "name": "",
          "type": "address[]"
        }
      ],
      "stateMutability": "view",
      "type": "function",
      "constant": true
    },
    {
      "inputs": [
        {
          "internalType": "address",
          "name": "_recipient",
          "type": "address"
        },
        {
          "internalType": "string",
          "name": "_content",
          "type": "string"
        }
      ],
      "name": "sendMessage",
      "outputs": [],
      "stateMutability": "nonpayable",
      "type": "function"
    },
    {
      "inputs": [
        {
          "internalType": "address",
          "name": "contact",
          "type": "address"
        }
      ],
      "name": "getMyMessages",
      "outputs": [
        {
          "components": [
            {
              "internalType": "address",
              "name": "sender",
              "type": "address"
            },
            {
              "internalType": "address",
              "name": "recipient",
              "type": "address"
            },
            {
              "internalType": "string",
              "name": "content",
              "type": "string"
            },
            {
              "internalType": "uint256",
              "name": "timestamp",
              "type": "uint256"
            },
            {
              "internalType": "bool",
              "name": "isRead",
              "type": "bool"
            }
          ],
          "internalType": "struct Messages.Message[]",
          "name": "",
          "type": "tuple[]"
        }
      ],
      "stateMutability": "view",
      "type": "function",
      "constant": true
    },
    {
      "inputs": [
        {
          "internalType": "address",
          "name": "contact",
          "type": "address"
        }
      ],
      "name": "markAsRead",
      "outputs": [],
      "stateMutability": "nonpayable",
      "type": "function"
    }
  ],
  "bytecode": "0x608060405234801561001057600080fd5b5061185c806100206000396000f3fe608060405234801561001057600080fd5b506004361061007d5760003560e01c806398d63d3d1161005b57806398d63d3d14610116578063c2253fdf14610146578063d9c8367014610164578063de6f24bb146101805761007d565b806316d4a97614610082578063456bcc35146100b65780637acc2ef9146100e6575b600080fd5b61009c600480360381019061009791906110e3565b61019c565b6040516100ad959493929190611208565b60405180910390f35b6100d060048036038101906100cb9190611262565b6102d1565b6040516100dd919061143e565b60405180910390f35b61010060048036038101906100fb9190611460565b610559565b60405161010d91906114a0565b60405180910390f35b610130600480360381019061012b9190611262565b6105a7565b60405161013d919061143e565b60405180910390f35b61014e61082f565b60405161015b919061156a565b60405180910390f35b61017e60048036038101906101799190611262565b6108fa565b005b61019a600480360381019061019591906116c1565b610bba565b005b600060205282600052604060002060205281600052604060002081815481106101c457600080fd5b906000526020600020906005020160009250925050508060000160009054906101000a900473ffffffffffffffffffffffffffffffffffffffff16908060010160009054906101000a900473ffffffffffffffffffffffffffffffffffffffff16908060020180546102359061174c565b80601f01602080910402602001604051908101604052809291908181526020018280546102619061174c565b80156102ae5780601f10610283576101008083540402835291602001916102ae565b820191906000526020600020905b81548152906001019060200180831161029157829003601f168201915b5050505050908060030154908060040160009054906101000a900460ff16905085565b60606000808373ffffffffffffffffffffffffffffffffffffffff163373ffffffffffffffffffffffffffffffffffffffff1610156103155733915083905061031c565b8391503390505b6000808373ffffffffffffffffffffffffffffffffffffffff1673ffffffffffffffffffffffffffffffffffffffff16815260200190815260200160002060008273ffffffffffffffffffffffffffffffffffffffff1673ffffffffffffffffffffffffffffffffffffffff168152602001908152602001600020805480602002602001604051908101604052809291908181526020016000905b8282101561054c57838290600052602060002090600502016040518060a00160405290816000820160009054906101000a900473ffffffffffffffffffffffffffffffffffffffff1673ffffffffffffffffffffffffffffffffffffffff1673ffffffffffffffffffffffffffffffffffffffff1681526020016001820160009054906101000a900473ffffffffffffffffffffffffffffffffffffffff1673ffffffffffffffffffffffffffffffffffffffff1673ffffffffffffffffffffffffffffffffffffffff1681526020016002820180546104969061174c565b80601f01602080910402602001604051908101604052809291908181526020018280546104c29061174c565b801561050f5780601f106104e45761010080835404028352916020019161050f565b820191906000526020600020905b8154815290600101906020018083116104f257829003601f168201915b50505050508152602001600382015481526020016004820160009054906101000a900460ff161515151581525050815260200190600101906103b7565b5050505092505050919050565b6001602052816000526040600020818154811061057557600080fd5b906000526020600020016000915091509054906101000a900473ffffffffffffffffffffffffffffffffffffffff1681565b60606000808373ffffffffffffffffffffffffffffffffffffffff163373ffffffffffffffffffffffffffffffffffffffff1610156105eb573391508390506105f2565b8391503390505b6000808373ffffffffffffffffffffffffffffffffffffffff1673ffffffffffffffffffffffffffffffffffffffff16815260200190815260200160002060008273ffffffffffffffffffffffffffffffffffffffff1673ffffffffffffffffffffffffffffffffffffffff168152602001908152602001600020805480602002602001604051908101604052809291908181526020016000905b8282101561082257838290600052602060002090600502016040518060a00160405290816000820160009054906101000a900473ffffffffffffffffffffffffffffffffffffffff1673ffffffffffffffffffffffffffffffffffffffff1673ffffffffffffffffffffffffffffffffffffffff1681526020016001820160009054906101000a900473ffffffffffffffffffffffffffffffffffffffff1673ffffffffffffffffffffffffffffffffffffffff1673ffffffffffffffffffffffffffffffffffffffff16815260200160028201805461076c9061174c565b80601f01602080910402602001604051908101604052809291908181526020018280546107989061174c565b80156107e55780601f106107ba576101008083540402835291602001916107e5565b820191906000526020600020905b8154815290600101906020018083116107c857829003601f168201915b50505050508152602001600382015481526020016004820160009054906101000a900460ff1615151515815250508152602001906001019061068d565b5050505092505050919050565b6060600160003373ffffffffffffffffffffffffffffffffffffffff1673ffffffffffffffffffffffffffffffffffffffff1681526020019081526020016000208054806020026020016040519081016040528092919081815260200182805480156108f057602002820191906000526020600020905b8160009054906101000a900473ffffffffffffffffffffffffffffffffffffffff1673ffffffffffffffffffffffffffffffffffffffff16815260200190600101908083116108a6575b5050505050905090565b6000808273ffffffffffffffffffffffffffffffffffffffff163373ffffffffffffffffffffffffffffffffffffffff16101561093c57339150829050610943565b8291503390505b60008060008473ffffffffffffffffffffffffffffffffffffffff1673ffffffffffffffffffffffffffffffffffffffff16815260200190815260200160002060008373ffffffffffffffffffffffffffffffffffffffff1673ffffffffffffffffffffffffffffffffffffffff16815260200190815260200160002090506000818054905090505b600081118015610a8c57503373ffffffffffffffffffffffffffffffffffffffff16828281548110610a0157610a0061177d565b5b906000526020600020906005020160010160009054906101000a900473ffffffffffffffffffffffffffffffffffffffff1673ffffffffffffffffffffffffffffffffffffffff16141580610a8b575060001515828281548110610a6857610a6761177d565b5b906000526020600020906005020160040160009054906101000a900460ff161515145b5b15610b59573373ffffffffffffffffffffffffffffffffffffffff16828281548110610abb57610aba61177d565b5b906000526020600020906005020160010160009054906101000a900473ffffffffffffffffffffffffffffffffffffffff1673ffffffffffffffffffffffffffffffffffffffff1603610b46576001828281548110610b1d57610b1c61177d565b5b906000526020600020906005020160040160006101000a81548160ff0219169083151502179055505b8080610b51906117db565b9150506109cc565b8473ffffffffffffffffffffffffffffffffffffffff163373ffffffffffffffffffffffffffffffffffffffff167fe01b47e5368affd93f0f76527fbf7da10e3feb9851a7bd21e8b58708dbbf2fc160405160405180910390a35050505050565b60006040518060a001604052803373ffffffffffffffffffffffffffffffffffffffff1681526020018473ffffffffffffffffffffffffffffffffffffffff1681526020018381526020014281526020016000151581525090506000808473ffffffffffffffffffffffffffffffffffffffff163373ffffffffffffffffffffffffffffffffffffffff161015610c5657339150849050610c5d565b8491503390505b60008060008473ffffffffffffffffffffffffffffffffffffffff1673ffffffffffffffffffffffffffffffffffffffff16815260200190815260200160002060008373ffffffffffffffffffffffffffffffffffffffff1673ffffffffffffffffffffffffffffffffffffffff16815260200190815260200160002090506000818054905003610e2957600160008473ffffffffffffffffffffffffffffffffffffffff1673ffffffffffffffffffffffffffffffffffffffff168152602001908152602001600020829080600181540180825580915050600190039060005260206000200160009091909190916101000a81548173ffffffffffffffffffffffffffffffffffffffff021916908373ffffffffffffffffffffffffffffffffffffffff160217905550600160008373ffffffffffffffffffffffffffffffffffffffff1673ffffffffffffffffffffffffffffffffffffffff168152602001908152602001600020839080600181540180825580915050600190039060005260206000200160009091909190916101000a81548173ffffffffffffffffffffffffffffffffffffffff021916908373ffffffffffffffffffffffffffffffffffffffff1602179055505b8084908060018154018082558091505060019003906000526020600020906005020160009091909190915060008201518160000160006101000a81548173ffffffffffffffffffffffffffffffffffffffff021916908373ffffffffffffffffffffffffffffffffffffffff16021790555060208201518160010160006101000a81548173ffffffffffffffffffffffffffffffffffffffff021916908373ffffffffffffffffffffffffffffffffffffffff1602179055506040820151816002019080519060200190610efe929190610f98565b506060820151816003015560808201518160040160006101000a81548160ff02191690831515021790555050508573ffffffffffffffffffffffffffffffffffffffff163373ffffffffffffffffffffffffffffffffffffffff167fe2cf7446a11cbcd14cd99ea3a1bb77fb7653a64f4064d660140b5100d001e13c87604051610f889190611804565b60405180910390a3505050505050565b828054610fa49061174c565b90600052602060002090601f016020900481019282610fc6576000855561100d565b82601f10610fdf57805160ff191683800117855561100d565b8280016001018555821561100d579182015b8281111561100c578251825591602001919060010190610ff1565b5b50905061101a919061101e565b5090565b5b8082111561103757600081600090555060010161101f565b5090565b6000604051905090565b600080fd5b600080fd5b600073ffffffffffffffffffffffffffffffffffffffff82169050919050565b600061107a8261104f565b9050919050565b61108a8161106f565b811461109557600080fd5b50565b6000813590506110a781611081565b92915050565b6000819050919050565b6110c0816110ad565b81146110cb57600080fd5b50565b6000813590506110dd816110b7565b92915050565b6000806000606084860312156110fc576110fb611045565b5b600061110a86828701611098565b935050602061111b86828701611098565b925050604061112c868287016110ce565b9150509250925092565b61113f8161106f565b82525050565b600081519050919050565b600082825260208201905092915050565b60005b8381101561117f578082015181840152602081019050611164565b8381111561118e576000848401525b50505050565b6000601f19601f8301169050919050565b60006111b082611145565b6111ba8185611150565b93506111ca818560208601611161565b6111d381611194565b840191505092915050565b6111e7816110ad565b82525050565b60008115159050919050565b611202816111ed565b82525050565b600060a08201905061121d6000830188611136565b61122a6020830187611136565b818103604083015261123c81866111a5565b905061124b60608301856111de565b61125860808301846111f9565b9695505050505050565b60006020828403121561127857611277611045565b5b600061128684828501611098565b91505092915050565b600081519050919050565b600082825260208201905092915050565b6000819050602082019050919050565b6112c48161106f565b82525050565b600082825260208201905092915050565b60006112e682611145565b6112f081856112ca565b9350611300818560208601611161565b61130981611194565b840191505092915050565b61131d816110ad565b82525050565b61132c816111ed565b82525050565b600060a08301600083015161134a60008601826112bb565b50602083015161135d60208601826112bb565b506040830151848203604086015261137582826112db565b915050606083015161138a6060860182611314565b50608083015161139d6080860182611323565b508091505092915050565b60006113b48383611332565b905092915050565b6000602082019050919050565b60006113d48261128f565b6113de818561129a565b9350836020820285016113f0856112ab565b8060005b8581101561142c578484038952815161140d85826113a8565b9450611418836113bc565b925060208a019950506001810190506113f4565b50829750879550505050505092915050565b6000602082019050818103600083015261145881846113c9565b905092915050565b6000806040838503121561147757611476611045565b5b600061148585828601611098565b9250506020611496858286016110ce565b9150509250929050565b60006020820190506114b56000830184611136565b92915050565b600081519050919050565b600082825260208201905092915050565b6000819050602082019050919050565b60006114f383836112bb565b60208301905092915050565b6000602082019050919050565b6000611517826114bb565b61152181856114c6565b935061152c836114d7565b8060005b8381101561155d57815161154488826114e7565b975061154f836114ff565b925050600181019050611530565b5085935050505092915050565b60006020820190508181036000830152611584818461150c565b905092915050565b600080fd5b600080fd5b7f4e487b7100000000000000000000000000000000000000000000000000000000600052604160045260246000fd5b6115ce82611194565b810181811067ffffffffffffffff821117156115ed576115ec611596565b5b80604052505050565b600061160061103b565b905061160c82826115c5565b919050565b600067ffffffffffffffff82111561162c5761162b611596565b5b61163582611194565b9050602081019050919050565b82818337600083830152505050565b600061166461165f84611611565b6115f6565b9050828152602081018484840111156116805761167f611591565b5b61168b848285611642565b509392505050565b600082601f8301126116a8576116a761158c565b5b81356116b8848260208601611651565b91505092915050565b600080604083850312156116d8576116d7611045565b5b60006116e685828601611098565b925050602083013567ffffffffffffffff8111156117075761170661104a565b5b61171385828601611693565b9150509250929050565b7f4e487b7100000000000000000000000000000000000000000000000000000000600052602260045260246000fd5b6000600282049050600182168061176457607f821691505b6020821081036117775761177661171d565b5b50919050565b7f4e487b7100000000000000000000000000000000000000000000000000000000600052603260045260246000fd5b7f4e487b7100000000000000000000000000000000000000000000000000000000600052601160045260246000fd5b60006117e6826110ad565b9150600082036117f9576117f86117ac565b5b600182039050919050565b6000602082019050818103600083015261181e81846111a5565b90509291505056fea2646970667358221220636ab7b5f1d0a9012b368c68fbb57d2d8294c0953422f7dd8b0c7af5bd3894ce64736f6c634300080d0033",
  "immutableReferences": {},
  "source": "// SPDX-License-Identifier: MIT\r\npragma solidity ^0.8.0;\r\n\r\ncontract Messages {\r\n    // Struct to represent the structure of a message\r\n    struct Message {\r\n        address sender;     // Ethereum address of the sender\r\n        address recipient;  // Ethereum address of the recipient\r\n        string content;     // Content of the message\r\n        uint256 timestamp;  // Timestamp when the message was sent\r\n        bool isRead;        // Flag to indicate if the message has been read\r\n    }\r\n\r\n    // Mapping to store each conversation between users (supports 1-on-1 messaging only)\r\n    // To access a conversation history, use the lexicographically smaller address as the first key\r\n    mapping(address => mapping(address => Message[])) public userMessages;\r\n\r\n    // Mapping to store who any given user has started a conversation with\r\n    mapping(address => address[]) public contactLists;\r\n\r\n    // Event to emit when a new message is sent\r\n    event MessageSent(address indexed sender, address indexed recipient, string content);\r\n\r\n    // Event to emit when a conversation is read\r\n    event MessageRead(address indexed sender, address indexed recipient);\r\n\r\n    // Custom public getter function for userMessages since compiler can't handle nested mappings well\r\n    function getUserMessages(address contact) public view returns (Message[] memory) {\r\n        address _first;\r\n        address _second;\r\n        if (msg.sender < contact) {\r\n            _first = msg.sender;\r\n            _second = contact;\r\n        } else {\r\n            _first = contact;\r\n            _second = msg.sender;\r\n        }\r\n\r\n        return userMessages[_first][_second];\r\n    }\r\n\r\n    // Function that returns a user's entire contact list\r\n    function getMyContacts() public view returns (address[] memory) {\r\n        return contactLists[msg.sender];\r\n    }\r\n\r\n    // Function to send a new message\r\n    function sendMessage(address _recipient, string memory _content) public {\r\n        Message memory newMessage = Message({\r\n            sender: msg.sender,\r\n            recipient: _recipient,\r\n            content: _content,\r\n            timestamp: block.timestamp,\r\n            isRead: false\r\n        });\r\n\r\n        address _first;\r\n        address _second;\r\n        if (msg.sender < _recipient) {\r\n            _first = msg.sender;\r\n            _second = _recipient;\r\n        } else {\r\n            _first = _recipient;\r\n            _second = msg.sender;\r\n        }\r\n\r\n        Message[] storage convo = userMessages[_first][_second];\r\n        \r\n        if (convo.length == 0) {\r\n            contactLists[_first].push(_second);\r\n            contactLists[_second].push(_first);\r\n        }\r\n\r\n        convo.push(newMessage);\r\n\r\n\r\n        emit MessageSent(msg.sender, _recipient, _content);\r\n    }\r\n\r\n    // Function to retrieve all messages for the caller\r\n    function getMyMessages(address contact) public view returns (Message[] memory) {\r\n        address _first;\r\n        address _second;\r\n        if (msg.sender < contact) {\r\n            _first = msg.sender;\r\n            _second = contact;\r\n        } else {\r\n            _first = contact;\r\n            _second = msg.sender;\r\n        }\r\n\r\n        return userMessages[_first][_second];\r\n    }\r\n\r\n    // Function to update all messages in a conversation as read\r\n    function markAsRead(address contact) public {\r\n        address _first;\r\n        address _second;\r\n        if (msg.sender < contact) {\r\n            _first = msg.sender;\r\n            _second = contact;\r\n        } else {\r\n            _first = contact;\r\n            _second = msg.sender;\r\n        }\r\n\r\n        Message[] storage messages = userMessages[_first][_second];\r\n\r\n        // Iterate through conversation history backwards and mark incoming messages as read until an already read message is found\r\n        uint i = messages.length;\r\n        while (i > 0 && (messages[i].recipient != msg.sender || messages[i].isRead == false)) {\r\n            if (messages[i].recipient == msg.sender) {\r\n                messages[i].isRead = true;\r\n            }\r\n            i--;\r\n        }\r\n        emit MessageRead(msg.sender, contact);\r\n    }\r\n}",
  "sourcePath": "C:\\Users\\Sam\\Downloads\\MessagingApp\\contracts\\Messages.sol",
  "compiler": {
    "name": "solc",
    "version": "0.8.13+commit.abaa5c0e.Emscripten.clang"
  },
  "schemaVersion": "3.4.16",
  "updatedAt": "2024-04-23T11:41:42.150Z",
  "networkType": "ethereum",
  "devdoc": {
    "kind": "dev",
    "methods": {},
    "version": 1
  },
  "userdoc": {
    "kind": "user",
    "methods": {},
    "version": 1
  }
}