{
  "contractName": "Users",
  "abi": [
    {
      "anonymous": false,
      "inputs": [
        {
          "indexed": true,
          "internalType": "address",
          "name": "userAddress",
          "type": "address"
        },
        {
          "indexed": false,
          "internalType": "string",
          "name": "name",
          "type": "string"
        },
        {
          "indexed": false,
          "internalType": "string",
          "name": "email",
          "type": "string"
        }
      ],
      "name": "UserRegistered",
      "type": "event"
    },
    {
      "inputs": [
        {
          "internalType": "address",
          "name": "",
          "type": "address"
        }
      ],
      "name": "users",
      "outputs": [
        {
          "internalType": "string",
          "name": "name",
          "type": "string"
        },
        {
          "internalType": "string",
          "name": "email",
          "type": "string"
        },
        {
          "internalType": "bytes32",
          "name": "passwordHash",
          "type": "bytes32"
        },
        {
          "internalType": "bool",
          "name": "isRegistered",
          "type": "bool"
        }
      ],
      "stateMutability": "view",
      "type": "function",
      "constant": true
    },
    {
      "inputs": [
        {
          "internalType": "string",
          "name": "_name",
          "type": "string"
        },
        {
          "internalType": "string",
          "name": "_email",
          "type": "string"
        },
        {
          "internalType": "bytes32",
          "name": "_passwordHash",
          "type": "bytes32"
        }
      ],
      "name": "registerUser",
      "outputs": [],
      "stateMutability": "nonpayable",
      "type": "function"
    },
    {
      "inputs": [],
      "name": "getAllAddresses",
      "outputs": [
        {
          "internalType": "address[]",
          "name": "",
          "type": "address[]"
        }
      ],
      "stateMutability": "view",
      "type": "function",
      "constant": true
    },
    {
      "inputs": [
        {
          "internalType": "string",
          "name": "_email",
          "type": "string"
        },
        {
          "internalType": "bytes32",
          "name": "_passwordHash",
          "type": "bytes32"
        }
      ],
      "name": "authenticate",
      "outputs": [
        {
          "internalType": "bool",
          "name": "",
          "type": "bool"
        }
      ],
      "stateMutability": "view",
      "type": "function",
      "constant": true
    }
  ],
  "bytecode": "0x608060405234801561001057600080fd5b50610e9f806100206000396000f3fe608060405234801561001057600080fd5b506004361061004c5760003560e01c806368f6d82a146100515780639516a1041461006d578063a87430ba1461008b578063e0bb933d146100be575b600080fd5b61006b6004803603810190610066919061088a565b6100ee565b005b610075610306565b6040516100829190610a05565b60405180910390f35b6100a560048036038101906100a09190610a53565b610394565b6040516100b59493929190610b32565b60405180910390f35b6100d860048036038101906100d39190610b85565b6104e1565b6040516100e59190610be1565b60405180910390f35b600160003373ffffffffffffffffffffffffffffffffffffffff1673ffffffffffffffffffffffffffffffffffffffff16815260200190815260200160002060030160009054906101000a900460ff161561017e576040517f08c379a000000000000000000000000000000000000000000000000000000000815260040161017590610c48565b60405180910390fd5b6000604051806080016040528085815260200184815260200183815260200160011515815250905080600160003373ffffffffffffffffffffffffffffffffffffffff1673ffffffffffffffffffffffffffffffffffffffff1681526020019081526020016000206000820151816000019080519060200190610202929190610657565b50602082015181600101908051906020019061021f929190610657565b506040820151816002015560608201518160030160006101000a81548160ff0219169083151502179055509050506000339080600181540180825580915050600190039060005260206000200160009091909190916101000a81548173ffffffffffffffffffffffffffffffffffffffff021916908373ffffffffffffffffffffffffffffffffffffffff1602179055503373ffffffffffffffffffffffffffffffffffffffff167f92822564bab8864c3a47b34e8d23fbce5c46234eb5da261f94087b995ac0f33b85856040516102f8929190610c68565b60405180910390a250505050565b6060600080548060200260200160405190810160405280929190818152602001828054801561038a57602002820191906000526020600020905b8160009054906101000a900473ffffffffffffffffffffffffffffffffffffffff1673ffffffffffffffffffffffffffffffffffffffff1681526020019060010190808311610340575b5050505050905090565b60016020528060005260406000206000915090508060000180546103b790610cce565b80601f01602080910402602001604051908101604052809291908181526020018280546103e390610cce565b80156104305780601f1061040557610100808354040283529160200191610430565b820191906000526020600020905b81548152906001019060200180831161041357829003601f168201915b50505050509080600101805461044590610cce565b80601f016020809104026020016040519081016040528092919081815260200182805461047190610cce565b80156104be5780601f10610493576101008083540402835291602001916104be565b820191906000526020600020905b8154815290600101906020018083116104a157829003601f168201915b5050505050908060020154908060030160009054906101000a900460ff16905084565b6000600160003373ffffffffffffffffffffffffffffffffffffffff1673ffffffffffffffffffffffffffffffffffffffff16815260200190815260200160002060030160009054906101000a900460ff16610572576040517f08c379a000000000000000000000000000000000000000000000000000000000815260040161056990610d4b565b60405180910390fd5b826040516020016105839190610da7565b60405160208183030381529060405280519060200120600160003373ffffffffffffffffffffffffffffffffffffffff1673ffffffffffffffffffffffffffffffffffffffff1681526020019081526020016000206001016040516020016105eb9190610e52565b6040516020818303038152906040528051906020012014801561064f575081600160003373ffffffffffffffffffffffffffffffffffffffff1673ffffffffffffffffffffffffffffffffffffffff16815260200190815260200160002060020154145b905092915050565b82805461066390610cce565b90600052602060002090601f01602090048101928261068557600085556106cc565b82601f1061069e57805160ff19168380011785556106cc565b828001600101855582156106cc579182015b828111156106cb5782518255916020019190600101906106b0565b5b5090506106d991906106dd565b5090565b5b808211156106f65760008160009055506001016106de565b5090565b6000604051905090565b600080fd5b600080fd5b600080fd5b600080fd5b6000601f19601f8301169050919050565b7f4e487b7100000000000000000000000000000000000000000000000000000000600052604160045260246000fd5b61076182610718565b810181811067ffffffffffffffff821117156107805761077f610729565b5b80604052505050565b60006107936106fa565b905061079f8282610758565b919050565b600067ffffffffffffffff8211156107bf576107be610729565b5b6107c882610718565b9050602081019050919050565b82818337600083830152505050565b60006107f76107f2846107a4565b610789565b90508281526020810184848401111561081357610812610713565b5b61081e8482856107d5565b509392505050565b600082601f83011261083b5761083a61070e565b5b813561084b8482602086016107e4565b91505092915050565b6000819050919050565b61086781610854565b811461087257600080fd5b50565b6000813590506108848161085e565b92915050565b6000806000606084860312156108a3576108a2610704565b5b600084013567ffffffffffffffff8111156108c1576108c0610709565b5b6108cd86828701610826565b935050602084013567ffffffffffffffff8111156108ee576108ed610709565b5b6108fa86828701610826565b925050604061090b86828701610875565b9150509250925092565b600081519050919050565b600082825260208201905092915050565b6000819050602082019050919050565b600073ffffffffffffffffffffffffffffffffffffffff82169050919050565b600061096c82610941565b9050919050565b61097c81610961565b82525050565b600061098e8383610973565b60208301905092915050565b6000602082019050919050565b60006109b282610915565b6109bc8185610920565b93506109c783610931565b8060005b838110156109f85781516109df8882610982565b97506109ea8361099a565b9250506001810190506109cb565b5085935050505092915050565b60006020820190508181036000830152610a1f81846109a7565b905092915050565b610a3081610961565b8114610a3b57600080fd5b50565b600081359050610a4d81610a27565b92915050565b600060208284031215610a6957610a68610704565b5b6000610a7784828501610a3e565b91505092915050565b600081519050919050565b600082825260208201905092915050565b60005b83811015610aba578082015181840152602081019050610a9f565b83811115610ac9576000848401525b50505050565b6000610ada82610a80565b610ae48185610a8b565b9350610af4818560208601610a9c565b610afd81610718565b840191505092915050565b610b1181610854565b82525050565b60008115159050919050565b610b2c81610b17565b82525050565b60006080820190508181036000830152610b4c8187610acf565b90508181036020830152610b608186610acf565b9050610b6f6040830185610b08565b610b7c6060830184610b23565b95945050505050565b60008060408385031215610b9c57610b9b610704565b5b600083013567ffffffffffffffff811115610bba57610bb9610709565b5b610bc685828601610826565b9250506020610bd785828601610875565b9150509250929050565b6000602082019050610bf66000830184610b23565b92915050565b7f5573657220616c72656164792072656769737465726564000000000000000000600082015250565b6000610c32601783610a8b565b9150610c3d82610bfc565b602082019050919050565b60006020820190508181036000830152610c6181610c25565b9050919050565b60006040820190508181036000830152610c828185610acf565b90508181036020830152610c968184610acf565b90509392505050565b7f4e487b7100000000000000000000000000000000000000000000000000000000600052602260045260246000fd5b60006002820490506001821680610ce657607f821691505b602082108103610cf957610cf8610c9f565b5b50919050565b7f55736572206d7573742062652072656769737465726564000000000000000000600082015250565b6000610d35601783610a8b565b9150610d4082610cff565b602082019050919050565b60006020820190508181036000830152610d6481610d28565b9050919050565b600081905092915050565b6000610d8182610a80565b610d8b8185610d6b565b9350610d9b818560208601610a9c565b80840191505092915050565b6000610db38284610d76565b915081905092915050565b60008190508160005260206000209050919050565b60008154610de081610cce565b610dea8186610d6b565b94506001821660008114610e055760018114610e1657610e49565b60ff19831686528186019350610e49565b610e1f85610dbe565b60005b83811015610e4157815481890152600182019150602081019050610e22565b838801955050505b50505092915050565b6000610e5e8284610dd3565b91508190509291505056fea26469706673582212207a2baf50cd3b88d00a7b01757be3a56a81ef84d5019e8d5187ff6100b025c72764736f6c634300080d0033",
  "immutableReferences": {},
  "source": "// SPDX-License-Identifier: MIT\r\npragma solidity ^0.8.0;\r\n\r\ncontract Users {\r\n    // Struct to store user information\r\n    struct User {\r\n        string name;         // User's name\r\n        string email;        // User's email address\r\n        bytes32 passwordHash;// User's hashed password\r\n        bool isRegistered;   // User's registration status\r\n    }\r\n\r\n    // Array to be able to iterate over all registered addresses\r\n    address[] addresses;\r\n\r\n    // Mapping to link each user's Ethereum address with their user information\r\n    mapping(address => User) public users;\r\n    \r\n    // Event to emit when a new user is registered\r\n    event UserRegistered(address indexed userAddress, string name, string email);\r\n\r\n    // Function to register a new user\r\n    function registerUser(string memory _name, string memory _email, bytes32 _passwordHash) public {\r\n        require(!users[msg.sender].isRegistered, \"User already registered\");\r\n\r\n        User memory newUser = User({\r\n            name: _name,\r\n            email: _email,\r\n            passwordHash: _passwordHash,\r\n            isRegistered: true\r\n        });\r\n        users[msg.sender] = newUser;\r\n\r\n        addresses.push(msg.sender);\r\n\r\n        emit UserRegistered(msg.sender, _name, _email);\r\n    }\r\n\r\n    // Getter function for addresses that returns the whole array\r\n    function getAllAddresses() public view returns (address[] memory) {\r\n        return addresses;\r\n    }\r\n\r\n    // Function to authenticate user based on password hash\r\n    function authenticate(string memory _email, bytes32 _passwordHash) public view returns (bool) {\r\n        require(users[msg.sender].isRegistered, \"User must be registered\");\r\n        return (keccak256(abi.encodePacked((users[msg.sender].email))) == keccak256(abi.encodePacked((_email)))) && (users[msg.sender].passwordHash == _passwordHash);\r\n    }\r\n}",
  "sourcePath": "C:\\Users\\Sam\\Downloads\\MessagingApp\\contracts\\Users.sol",
  "compiler": {
    "name": "solc",
    "version": "0.8.13+commit.abaa5c0e.Emscripten.clang"
  },
  "schemaVersion": "3.4.16",
  "updatedAt": "2024-04-23T11:41:42.161Z",
  "networkType": "ethereum",
  "devdoc": {
    "kind": "dev",
    "methods": {},
    "version": 1
  },
  "userdoc": {
    "kind": "user",
    "methods": {},
    "version": 1
  }
}